{
  "_format": "hh-sol-artifact-1",
  "contractName": "CodBets",
  "sourceName": "contracts/CodBets.sol",
  "abi": [
    {
      "inputs": [],
      "stateMutability": "nonpayable",
      "type": "constructor"
    },
    {
      "anonymous": false,
      "inputs": [
        {
          "indexed": true,
          "internalType": "bytes32",
          "name": "id",
          "type": "bytes32"
        }
      ],
      "name": "ChainlinkCancelled",
      "type": "event"
    },
    {
      "anonymous": false,
      "inputs": [
        {
          "indexed": true,
          "internalType": "bytes32",
          "name": "id",
          "type": "bytes32"
        }
      ],
      "name": "ChainlinkFulfilled",
      "type": "event"
    },
    {
      "anonymous": false,
      "inputs": [
        {
          "indexed": true,
          "internalType": "bytes32",
          "name": "id",
          "type": "bytes32"
        }
      ],
      "name": "ChainlinkRequested",
      "type": "event"
    },
    {
      "anonymous": false,
      "inputs": [
        {
          "indexed": true,
          "internalType": "uint256",
          "name": "_challengeId",
          "type": "uint256"
        }
      ],
      "name": "ChallengeAccepted",
      "type": "event"
    },
    {
      "anonymous": false,
      "inputs": [
        {
          "indexed": true,
          "internalType": "uint256",
          "name": "_challengeId",
          "type": "uint256"
        },
        {
          "indexed": false,
          "internalType": "string",
          "name": "_winner",
          "type": "string"
        }
      ],
      "name": "ChallengeSettled",
      "type": "event"
    },
    {
      "anonymous": false,
      "inputs": [
        {
          "indexed": true,
          "internalType": "address",
          "name": "_player1",
          "type": "address"
        },
        {
          "indexed": true,
          "internalType": "uint256",
          "name": "_challengeId",
          "type": "uint256"
        },
        {
          "indexed": false,
          "internalType": "string",
          "name": "_gamertag1",
          "type": "string"
        },
        {
          "indexed": false,
          "internalType": "string",
          "name": "_gamertag2",
          "type": "string"
        },
        {
          "indexed": false,
          "internalType": "uint256",
          "name": "_amount",
          "type": "uint256"
        }
      ],
      "name": "NewChallenge",
      "type": "event"
    },
    {
      "anonymous": false,
      "inputs": [
        {
          "indexed": true,
          "internalType": "address",
          "name": "previousOwner",
          "type": "address"
        },
        {
          "indexed": true,
          "internalType": "address",
          "name": "newOwner",
          "type": "address"
        }
      ],
      "name": "OwnershipTransferred",
      "type": "event"
    },
    {
      "anonymous": false,
      "inputs": [
        {
          "indexed": true,
          "internalType": "uint256",
          "name": "_challengeId",
          "type": "uint256"
        }
      ],
      "name": "RemoveChallenge",
      "type": "event"
    },
    {
      "inputs": [
        {
          "internalType": "uint256",
          "name": "_challengeId",
          "type": "uint256"
        }
      ],
      "name": "acceptChallenge",
      "outputs": [],
      "stateMutability": "payable",
      "type": "function"
    },
    {
      "inputs": [],
      "name": "challengeCount",
      "outputs": [
        {
          "internalType": "uint256",
          "name": "",
          "type": "uint256"
        }
      ],
      "stateMutability": "view",
      "type": "function"
    },
    {
      "inputs": [
        {
          "internalType": "uint256",
          "name": "",
          "type": "uint256"
        }
      ],
      "name": "challenges",
      "outputs": [
        {
          "internalType": "address payable",
          "name": "player1",
          "type": "address"
        },
        {
          "internalType": "string",
          "name": "gamertag1",
          "type": "string"
        },
        {
          "internalType": "address payable",
          "name": "player2",
          "type": "address"
        },
        {
          "internalType": "string",
          "name": "gamertag2",
          "type": "string"
        },
        {
          "internalType": "uint256",
          "name": "amount",
          "type": "uint256"
        },
        {
          "internalType": "bool",
          "name": "accepted",
          "type": "bool"
        },
        {
          "internalType": "bool",
          "name": "settled",
          "type": "bool"
        },
        {
          "internalType": "string",
          "name": "winner",
          "type": "string"
        }
      ],
      "stateMutability": "view",
      "type": "function"
    },
    {
      "inputs": [
        {
          "internalType": "address",
          "name": "_oracle",
          "type": "address"
        },
        {
          "internalType": "bytes32",
          "name": "_jobId",
          "type": "bytes32"
        }
      ],
      "name": "changeOracle",
      "outputs": [],
      "stateMutability": "nonpayable",
      "type": "function"
    },
    {
      "inputs": [
        {
          "internalType": "string",
          "name": "_matchid",
          "type": "string"
        },
        {
          "internalType": "string",
          "name": "_gamertag1",
          "type": "string"
        },
        {
          "internalType": "string",
          "name": "_gamertag2",
          "type": "string"
        },
        {
          "internalType": "uint256",
          "name": "_challengeId",
          "type": "uint256"
        }
      ],
      "name": "fetchWinner",
      "outputs": [],
      "stateMutability": "nonpayable",
      "type": "function"
    },
    {
      "inputs": [
        {
          "internalType": "bytes32",
          "name": "_requestId",
          "type": "bytes32"
        },
        {
          "internalType": "bytes32",
          "name": "_winner",
          "type": "bytes32"
        }
      ],
      "name": "fulfill",
      "outputs": [],
      "stateMutability": "nonpayable",
      "type": "function"
    },
    {
      "inputs": [
        {
          "internalType": "bytes32",
          "name": "",
          "type": "bytes32"
        }
      ],
      "name": "matches",
      "outputs": [
        {
          "internalType": "uint256",
          "name": "",
          "type": "uint256"
        }
      ],
      "stateMutability": "view",
      "type": "function"
    },
    {
      "inputs": [],
      "name": "owner",
      "outputs": [
        {
          "internalType": "address",
          "name": "",
          "type": "address"
        }
      ],
      "stateMutability": "view",
      "type": "function"
    },
    {
      "inputs": [
        {
          "internalType": "string",
          "name": "_gamertag1",
          "type": "string"
        },
        {
          "internalType": "string",
          "name": "_gamertag2",
          "type": "string"
        },
        {
          "internalType": "address payable",
          "name": "_player2",
          "type": "address"
        },
        {
          "internalType": "uint256",
          "name": "_amount",
          "type": "uint256"
        }
      ],
      "name": "placeChallenge",
      "outputs": [
        {
          "internalType": "uint256",
          "name": "",
          "type": "uint256"
        }
      ],
      "stateMutability": "payable",
      "type": "function"
    },
    {
      "inputs": [
        {
          "internalType": "address",
          "name": "",
          "type": "address"
        },
        {
          "internalType": "uint256",
          "name": "",
          "type": "uint256"
        }
      ],
      "name": "receivedChallenges",
      "outputs": [
        {
          "internalType": "uint256",
          "name": "",
          "type": "uint256"
        }
      ],
      "stateMutability": "view",
      "type": "function"
    },
    {
      "inputs": [
        {
          "internalType": "uint256",
          "name": "_challengeId",
          "type": "uint256"
        }
      ],
      "name": "removeChallenge",
      "outputs": [],
      "stateMutability": "nonpayable",
      "type": "function"
    },
    {
      "inputs": [],
      "name": "renounceOwnership",
      "outputs": [],
      "stateMutability": "nonpayable",
      "type": "function"
    },
    {
      "inputs": [
        {
          "internalType": "address",
          "name": "newOwner",
          "type": "address"
        }
      ],
      "name": "transferOwnership",
      "outputs": [],
      "stateMutability": "nonpayable",
      "type": "function"
    },
    {
      "inputs": [
        {
          "internalType": "address",
          "name": "",
          "type": "address"
        },
        {
          "internalType": "uint256",
          "name": "",
          "type": "uint256"
        }
      ],
      "name": "userChallenges",
      "outputs": [
        {
          "internalType": "uint256",
          "name": "",
          "type": "uint256"
        }
      ],
      "stateMutability": "view",
      "type": "function"
    },
    {
      "inputs": [
        {
          "internalType": "address",
          "name": "_addr",
          "type": "address"
        }
      ],
      "name": "viewChallenges",
      "outputs": [
        {
          "internalType": "uint256[]",
          "name": "_userChallenges",
          "type": "uint256[]"
        }
      ],
      "stateMutability": "view",
      "type": "function"
    },
    {
      "inputs": [
        {
          "internalType": "address",
          "name": "_addr",
          "type": "address"
        }
      ],
      "name": "viewReceivedChallenges",
      "outputs": [
        {
          "internalType": "uint256[]",
          "name": "_receivedChallenges",
          "type": "uint256[]"
        }
      ],
      "stateMutability": "view",
      "type": "function"
    }
  ],
  "bytecode": "0x608060405260016005553480156200001657600080fd5b5060006200002c6001600160e01b03620000ea16565b600080546001600160a01b0319166001600160a01b0383169081178255604051929350917f8be0079c531659141344cd1fd0a4f28419497f9722a3daafe3b4186f6b6457e0908290a350620000896001600160e01b03620000ee16565b600780546001600160a01b03191673db524c2d3c2b3e75150eab9accdb1d25feb511511790557f356631663332343964313335343136326138306334303064636435343064643460085567016345785d8a00006009556000600a55620001a1565b3390565b6200017d73c89bd4e1632d3a43cb03aaad5262cbe4038bc5716001600160a01b03166338cc48316040518163ffffffff1660e01b815260040160206040518083038186803b1580156200014057600080fd5b505afa15801562000155573d6000803e3d6000fd5b505050506040513d60208110156200016c57600080fd5b50516001600160e01b036200017f16565b565b600380546001600160a01b0319166001600160a01b0392909216919091179055565b6123d180620001b16000396000f3fe6080604052600436106100f35760003560e01c80638654c3571161008a5780639fe9ada3116100595780639fe9ada31461078b578063a2f05725146107b5578063a5ff0a13146107ca578063f2fde38b14610803576100f3565b80638654c357146105485780638da5cb5b1461057b5780638f1d3776146105ac5780639703037e14610752576100f3565b806340937346116100c657806340937346146103875780635a2af047146103b15780636ff60928146103fc578063715018a614610533576100f3565b80630162faa0146100f8578063042f2b651461017b5780631b0fc106146101ad5780633f09ecbd146101ca575b600080fd5b34801561010457600080fd5b5061012b6004803603602081101561011b57600080fd5b50356001600160a01b0316610836565b60408051602080825283518183015283519192839290830191858101910280838360005b8381101561016757818101518382015260200161014f565b505050509050019250505060405180910390f35b34801561018757600080fd5b506101ab6004803603604081101561019e57600080fd5b50803590602001356108a2565b005b6101ab600480360360208110156101c357600080fd5b5035610d36565b3480156101d657600080fd5b506101ab600480360360808110156101ed57600080fd5b810190602081018135600160201b81111561020757600080fd5b82018360208201111561021957600080fd5b803590602001918460018302840111600160201b8311171561023a57600080fd5b91908080601f0160208091040260200160405190810160405280939291908181526020018383808284376000920191909152509295949360208101935035915050600160201b81111561028c57600080fd5b82018360208201111561029e57600080fd5b803590602001918460018302840111600160201b831117156102bf57600080fd5b91908080601f0160208091040260200160405190810160405280939291908181526020018383808284376000920191909152509295949360208101935035915050600160201b81111561031157600080fd5b82018360208201111561032357600080fd5b803590602001918460018302840111600160201b8311171561034457600080fd5b91908080601f0160208091040260200160405190810160405280939291908181526020018383808284376000920191909152509295505091359250610e5b915050565b34801561039357600080fd5b506101ab600480360360208110156103aa57600080fd5b5035610ed8565b3480156103bd57600080fd5b506103ea600480360360408110156103d457600080fd5b506001600160a01b0381351690602001356110f8565b60408051918252519081900360200190f35b6103ea6004803603608081101561041257600080fd5b810190602081018135600160201b81111561042c57600080fd5b82018360208201111561043e57600080fd5b803590602001918460018302840111600160201b8311171561045f57600080fd5b91908080601f0160208091040260200160405190810160405280939291908181526020018383808284376000920191909152509295949360208101935035915050600160201b8111156104b157600080fd5b8201836020820111156104c357600080fd5b803590602001918460018302840111600160201b831117156104e457600080fd5b91908080601f016020809104026020016040519081016040528093929190818152602001838380828437600092019190915250929550506001600160a01b038335169350505060200135611126565b34801561053f57600080fd5b506101ab611494565b34801561055457600080fd5b5061012b6004803603602081101561056b57600080fd5b50356001600160a01b0316611536565b34801561058757600080fd5b506105906115a0565b604080516001600160a01b039092168252519081900360200190f35b3480156105b857600080fd5b506105d6600480360360208110156105cf57600080fd5b50356115b0565b604080516001600160a01b03808b1682528816918101919091526080810185905283151560a082015282151560c082015261010060208083018281528a51928401929092528951606084019160e08501916101208601918d019080838360005b8381101561064e578181015183820152602001610636565b50505050905090810190601f16801561067b5780820380516001836020036101000a031916815260200191505b5084810383528951815289516020918201918b019080838360005b838110156106ae578181015183820152602001610696565b50505050905090810190601f1680156106db5780820380516001836020036101000a031916815260200191505b50848103825285518152855160209182019187019080838360005b8381101561070e5781810151838201526020016106f6565b50505050905090810190601f16801561073b5780820380516001836020036101000a031916815260200191505b509b50505050505050505050505060405180910390f35b34801561075e57600080fd5b506101ab6004803603604081101561077557600080fd5b506001600160a01b0381351690602001356117af565b34801561079757600080fd5b506103ea600480360360208110156107ae57600080fd5b503561182d565b3480156107c157600080fd5b506103ea61183f565b3480156107d657600080fd5b506103ea600480360360408110156107ed57600080fd5b506001600160a01b038135169060200135611845565b34801561080f57600080fd5b506101ab6004803603602081101561082657600080fd5b50356001600160a01b031661185e565b6001600160a01b0381166000908152600c602090815260409182902080548351818402810184019094528084526060939283018282801561089657602002820191906000526020600020905b815481526020019060010190808311610882575b50505050509050919050565b60008281526006602052604090205482906001600160a01b031633146108f95760405162461bcd60e51b81526004018080602001828103825260288152602001806123526028913960400191505060405180910390fd5b60008181526006602052604080822080546001600160a01b03191690555182917f7cc135e0cebb02c3480ae5d74d377283180a2601f8f644edf7987b009316c63a91a260408051602080820185905282518083038201815291830183526000868152600d8252838120548152600b82529290922060058101805461ff00191661010017905581519192909161099691600684019190850190612177565b50816040516020018082805190602001908083835b602083106109ca5780518252601f1990920191602091820191016109ab565b6001836020036101000a03801982511681845116808217855250505050505090500191505060405160208183030381529060405280519060200120816001016040516020018082805460018160011615610100020316600290048015610a675780601f10610a45576101008083540402835291820191610a67565b820191906000526020600020905b815481529060010190602001808311610a53575b5050915050604051602081830303815290604052805190602001201415610acb57805460048201546040516001600160a01b039092169181156108fc0291906000818181858888f19350505050158015610ac5573d6000803e3d6000fd5b50610c82565b816040516020018082805190602001908083835b60208310610afe5780518252601f199092019160209182019101610adf565b6001836020036101000a03801982511681845116808217855250505050505090500191505060405160208183030381529060405280519060200120816003016040516020018082805460018160011615610100020316600290048015610b9b5780601f10610b79576101008083540402835291820191610b9b565b820191906000526020600020905b815481529060010190602001808311610b87575b5050915050604051602081830303815290604052805190602001201415610bfc57600281015460048201546040516001600160a01b039092169181156108fc0291906000818181858888f19350505050158015610ac5573d6000803e3d6000fd5b805460048201546040516001600160a01b0390921691600290910480156108fc02916000818181858888f19350505050158015610c3d573d6000803e3d6000fd5b5060028181015460048301546040516001600160a01b0390921692900480156108fc02916000818181858888f19350505050158015610c80573d6000803e3d6000fd5b505b600d6000868152602001908152602001600020547f5682bb3a873c7b40b493d87fb9bec82a4b41969decf015d46b95eb84461b978e836040518080602001828103825283818151815260200191508051906020019080838360005b83811015610cf5578181015183820152602001610cdd565b50505050905090810190601f168015610d225780820380516001836020036101000a031916815260200191505b509250505060405180910390a25050505050565b6000818152600b60205260409020600201546001600160a01b03163314610d94576040805162461bcd60e51b815260206004820152600d60248201526c3bb937b73390383630bcb2b91960991b604482015290519081900360640190fd5b6000818152600b60205260409020600401543414610de8576040805162461bcd60e51b815260206004820152600c60248201526b1ddc9bdb99c8185b5bdd5b9d60a21b604482015290519081900360640190fd5b6000818152600b6020526040902060040154610e0a903463ffffffff61195616565b6000828152600b602052604080822060048101939093556005909201805460ff19166001179055905182917fff3951852270cc05cca9770ac39f01a18c0c93c9ce918f723b9525b98db7078e91a250565b610e636119b9565b6000546001600160a01b03908116911614610eb3576040805162461bcd60e51b81526020600482018190526024820152600080516020612332833981519152604482015290519081900360640190fd5b6000610ec08585856119bd565b6000908152600d602052604090209190915550505050565b6000818152600b60205260409020546001600160a01b03163314610f2d5760405162461bcd60e51b815260040180806020018281038252602281526020018061237a6022913960400191505060405180910390fd5b6000818152600b602052604090206005015460ff1615610f94576040805162461bcd60e51b815260206004820152601a60248201527f6368616c6c656e676520616c7265616479206163636570746564000000000000604482015290519081900360640190fd5b60005b336000908152600c602052604090205481101561100d57336000908152600c60205260409020805483919083908110610fcc57fe5b9060005260206000200154141561100557336000908152600c60205260408120805483908110610ff857fe5b6000918252602090912001555b600101610f97565b506000818152600b6020526040808220805460049091015491516001600160a01b039091169282156108fc02929190818181858888f19350505050158015611059573d6000803e3d6000fd5b506000818152600b6020526040812080546001600160a01b03191681559061108460018301826121f5565b6002820180546001600160a01b03191690556110a46003830160006121f5565b60006004830181905560058301805461ffff191690556110c89060068401906121f5565b505060405181907f024b9e9b54127ed65a40a83089915c3b3d6be61f4eff1ec750dd6671dbad800190600090a250565b600e602052816000526040600020818154811061111157fe5b90600052602060002001600091509150505481565b6000348214611172576040805162461bcd60e51b8152602060048201526013602482015272616d6f756e7420213d206d73672e76616c756560681b604482015290519081900360640190fd5b600082116111b8576040805162461bcd60e51b815260206004820152600e60248201526d185b5bdd5b9d081a5b9d985b1a5960921b604482015290519081900360640190fd5b6111c061223c565b604051806101000160405280336001600160a01b03168152602001878152602001856001600160a01b03168152602001868152602001848152602001600015158152602001600015158152602001604051806040016040528060018152602001605f60f81b81525081525090506112436001600a5461195690919063ffffffff16565b600a8190556000908152600b60209081526040909120825181546001600160a01b0319166001600160a01b03909116178155828201518051849361128e926001850192910190612177565b5060408201516002820180546001600160a01b0319166001600160a01b03909216919091179055606082015180516112d0916003840191602090910190612177565b506080820151600482015560a082015160058201805460c085015115156101000261ff001993151560ff19909216919091179290921691909117905560e08201518051611327916006840191602090910190612177565b5050336000818152600c60209081526040808320600a805482546001818101855593875285872001556001600160a01b038b168552600e84528285208154815493840182559086528486209092019190915554815191820189905260608083528c51908301528b519095507fd053f74da2a93758f1b1350e39fe133e6c9e5ed7bede16dd26a1103ff6bec5d3938c938c938b9390928392838101926080850192918901918190849084905b838110156113ea5781810151838201526020016113d2565b50505050905090810190601f1680156114175780820380516001836020036101000a031916815260200191505b50838103825285518152855160209182019187019080838360005b8381101561144a578181015183820152602001611432565b50505050905090810190601f1680156114775780820380516001836020036101000a031916815260200191505b509550505050505060405180910390a35050600a54949350505050565b61149c6119b9565b6000546001600160a01b039081169116146114ec576040805162461bcd60e51b81526020600482018190526024820152600080516020612332833981519152604482015290519081900360640190fd5b600080546040516001600160a01b03909116907f8be0079c531659141344cd1fd0a4f28419497f9722a3daafe3b4186f6b6457e0908390a3600080546001600160a01b0319169055565b6001600160a01b0381166000908152600e602090815260409182902080548351818402810184019094528084526060939283018282801561089657602002820191906000526020600020908154815260200190600101908083116108825750505050509050919050565b6000546001600160a01b03165b90565b600b602090815260009182526040918290208054600180830180548651600261010094831615949094026000190190911692909204601f81018690048602830186019096528582526001600160a01b0390921694929390929083018282801561165a5780601f1061162f5761010080835404028352916020019161165a565b820191906000526020600020905b81548152906001019060200180831161163d57829003601f168201915b505050506002838101546003850180546040805160206101006001851615026000190190931695909504601f810183900483028601830190915280855295966001600160a01b03909316959294509091908301828280156116fc5780601f106116d1576101008083540402835291602001916116fc565b820191906000526020600020905b8154815290600101906020018083116116df57829003601f168201915b50505050600483015460058401546006850180546040805160206002610100600186161581026000190190951604601f81018290048202830182019093528282529798959760ff80871698509390950490921694939192918301828280156117a55780601f1061177a576101008083540402835291602001916117a5565b820191906000526020600020905b81548152906001019060200180831161178857829003601f168201915b5050505050905088565b6117b76119b9565b6000546001600160a01b03908116911614611807576040805162461bcd60e51b81526020600482018190526024820152600080516020612332833981519152604482015290519081900360640190fd5b600780546001600160a01b0319166001600160a01b039390931692909217909155600855565b600d6020526000908152604090205481565b600a5481565b600c602052816000526040600020818154811061111157fe5b6118666119b9565b6000546001600160a01b039081169116146118b6576040805162461bcd60e51b81526020600482018190526024820152600080516020612332833981519152604482015290519081900360640190fd5b6001600160a01b0381166118fb5760405162461bcd60e51b81526004018080602001828103825260268152602001806122e96026913960400191505060405180910390fd5b600080546040516001600160a01b03808516939216917f8be0079c531659141344cd1fd0a4f28419497f9722a3daafe3b4186f6b6457e091a3600080546001600160a01b0319166001600160a01b0392909216919091179055565b6000828201838110156119b0576040805162461bcd60e51b815260206004820152601b60248201527f536166654d6174683a206164646974696f6e206f766572666c6f770000000000604482015290519081900360640190fd5b90505b92915050565b3390565b60006119c761227f565b6008546119dc903063042f2b6560e01b611a95565b6040805180820190915260078152661b585d18da125960ca1b6020820152909150611a0f9082908763ffffffff611ab716565b604080518082019091526008815267757365727461673160c01b6020820152611a409082908663ffffffff611ab716565b6040805180820190915260088152673ab9b2b93a30b39960c11b6020820152611a719082908563ffffffff611ab716565b600754600954611a8c916001600160a01b0316908390611ae6565b95945050505050565b611a9d61227f565b611aa561227f565b611a8c8186868663ffffffff611cbd16565b6080830151611acc908363ffffffff611cfa16565b6080830151611ae1908263ffffffff611cfa16565b505050565b6005546040805130606090811b60208084019190915260348084018690528451808503909101815260549093018452825192810192909220908601939093526000838152600690915281812080546001600160a01b0319166001600160a01b038816179055905182917fb5e6e01e79f91267dc17b4e6314d5d4d03593d2ceee0fbb452b750bd70ea5af991a26003546001600160a01b0316634000aea08584611b8e87611d17565b6040518463ffffffff1660e01b815260040180846001600160a01b03166001600160a01b0316815260200183815260200180602001828103825283818151815260200191508051906020019080838360005b83811015611bf8578181015183820152602001611be0565b50505050905090810190601f168015611c255780820380516001836020036101000a031916815260200191505b50945050505050602060405180830381600087803b158015611c4657600080fd5b505af1158015611c5a573d6000803e3d6000fd5b505050506040513d6020811015611c7057600080fd5b5051611cad5760405162461bcd60e51b815260040180806020018281038252602381526020018061230f6023913960400191505060405180910390fd5b6005805460010190559392505050565b611cc561227f565b611cd58560800151610100611e57565b50509183526001600160a01b031660208301526001600160e01b031916604082015290565b611d078260038351611e91565b611ae1828263ffffffff611fa116565b6060634042994660e01b6000808460000151856020015186604001518760600151600189608001516000015160405160240180896001600160a01b03166001600160a01b03168152602001888152602001878152602001866001600160a01b03166001600160a01b03168152602001856001600160e01b0319166001600160e01b031916815260200184815260200183815260200180602001828103825283818151815260200191508051906020019080838360005b83811015611de5578181015183820152602001611dcd565b50505050905090810190601f168015611e125780820380516001836020036101000a031916815260200191505b5060408051601f198184030181529190526020810180516001600160e01b03166001600160e01b0319909d169c909c17909b5250989950505050505050505050919050565b611e5f6122b4565b6020820615611e745760208206602003820191505b506020828101829052604080518085526000815290920101905290565b60178111611eb857611eb28360e0600585901b16831763ffffffff611fbb16565b50611ae1565b60ff8111611eee57611edb836018611fe0600586901b161763ffffffff611fbb16565b50611eb28382600163ffffffff611fd316565b61ffff8111611f2557611f12836019611fe0600586901b161763ffffffff611fbb16565b50611eb28382600263ffffffff611fd316565b63ffffffff8111611f5e57611f4b83601a611fe0600586901b161763ffffffff611fbb16565b50611eb28382600463ffffffff611fd316565b67ffffffffffffffff8111611ae157611f8883601b611fe0600586901b161763ffffffff611fbb16565b50611f9b8382600863ffffffff611fd316565b50505050565b611fa96122b4565b6119b083846000015151848551611ff4565b611fc36122b4565b6119b083846000015151846120a0565b611fdb6122b4565b611fec8485600001515185856120eb565b949350505050565b611ffc6122b4565b825182111561200a57600080fd5b84602001518285011115612034576120348561202c8760200151878601612149565b600202612160565b6000808651805187602083010193508088870111156120535787860182525b505050602084015b6020841061207a5780518252601f19909301926020918201910161205b565b51815160001960208690036101000a019081169019919091161790525083949350505050565b6120a86122b4565b836020015183106120c4576120c4848560200151600202612160565b8351805160208583010184815350808514156120e1576001810182525b5093949350505050565b6120f36122b4565b846020015184830111156121105761211085858401600202612160565b60006001836101000a03905085518386820101858319825116178152508051848701111561213e5783860181525b509495945050505050565b60008183111561215a5750816119b3565b50919050565b815161216c8383611e57565b50611f9b8382611fa1565b828054600181600116156101000203166002900490600052602060002090601f016020900481019282601f106121b857805160ff19168380011785556121e5565b828001600101855582156121e5579182015b828111156121e55782518255916020019190600101906121ca565b506121f19291506122ce565b5090565b50805460018160011615610100020316600290046000825580601f1061221b5750612239565b601f01602090049060005260206000209081019061223991906122ce565b50565b604080516101008101825260008082526060602083018190529282018190528282018390526080820181905260a0820181905260c082015260e081019190915290565b6040805160a0810182526000808252602082018190529181018290526060810191909152608081016122af6122b4565b905290565b604051806040016040528060608152602001600081525090565b6115ad91905b808211156121f157600081556001016122d456fe4f776e61626c653a206e6577206f776e657220697320746865207a65726f2061646472657373756e61626c6520746f207472616e73666572416e6443616c6c20746f206f7261636c654f776e61626c653a2063616c6c6572206973206e6f7420746865206f776e6572536f75726365206d75737420626520746865206f7261636c65206f662074686520726571756573746368616c6c656e676520646f65736e27742062656c6f6e6720746f20706c61796572a2646970667358221220e2fb9f10762a27b1355c32c4407e3bd514906f559c011a4358fff4099ec72b1664736f6c63430006070033",
  "linkReferences": {},
  "deployedLinkReferences": {}
}